:100000000C9466000C948E000C948E000C948E0060
:100010000C948E000C948E000C948E000C948E0028
:100020000C948E000C948E000C948E000C948E0018
:100030000C948E000C948E000C948E000C948E0008
:100040000C94B5200C948E000C9480230C94B22355
:100050000C948E000C948E000C948E000C948E00E8
:100060000C948E000C948E00000000080002010029
:100070000003040700000000000000000102040863
:100080001020408001020408102001020408102002
:10009000040404040404040402020202020203032E
:1000A0000303030300000000250028002B000000CC
:1000B0000000240027002A00EF05D607D70C821085
:1000C00063126E12CE14E2239A24500611241FBE2E
:1000D000CFEFD8E0DEBFCDBF11E0A0E0B1E0E0E4BB
:1000E000F6E502C005900D92AE3DB107D9F724E0C8
:1000F000AEEDB1E001C01D92AF3CB207E1F710E0F8
:10010000CAECD0E004C02297FE010E940C28C83B34
:10011000D107C9F70E94A6270C94132B0C9400005A
:100120004F925F926F927F928F929F92AF92BF9207
:10013000CF92DF92EF92FF920F931F93CF93DF93B3
:10014000EC015B016A0149012E31310524F09AE08E
:10015000E92EF12C03C082E0E82EF12C00E010E043
:100160002701662457FC6094762C88819981DC01F4
:10017000ED91FC910480F581E02D09958C159D058C
:100180001CF40815190514F188819981DC01ED91A1
:10019000FC910480F581E02D09958C159D05ECF00E
:1001A000A601B50188819981DF91CF911F910F91AF
:1001B000FF90EF90DF90CF90BF90AF909F908F9087
:1001C0007F906F905F904F900C948525C301B20192
:1001D0000E942E210E0D1F1DC8CF8FEF9FEFDF91C4
:1001E000CF911F910F91FF90EF90DF90CF90BF9034
:1001F000AF909F908F907F906F905F904F900895F9
:10020000CF92DF92EF92FF92CF93DF93EC01488180
:1002100059816A817B81452B462B472B79F00E94BF
:10022000FF2021E0C880D980EA80FB806C157D0525
:100230008E059F0508F420E0822F01C080E0DF9149
:10024000CF91FF90EF90DF90CF900895815384304D
:1002500048F4E82FF0E0EA59FE4F8081992787FDA6
:100260009095089580E090E008956F927F928F922C
:100270009F92AF92BF92CF92DF92EF92FF920F9335
:100280001F93CF93DF93EC016B018A01E12CF12CDA
:10029000EC14FD042CF4C8010E940001882321F114
:1002A000EC14FD04F1F4FE01EA52FF4F00811181CC
:1002B0000115110599F00E94FF206B017C01C253CA
:1002C000DF4F28EE33E0D8010E941728C60ED71E54
:1002D000E81EF91EC882D982EA82FB8280E090E0A3
:1002E0002FC08FEF9FEF2CC0D8018D909C900E9463
:1002F000FF203701B6E06B0E711C6C0E7D1EA880CE
:10030000B980A401461B570B662757FD6095762FD1
:10031000F501808191810E947F25D5018D919C916D
:10032000DC01ED91FC910280F381E02DA6014E19D4
:100330005F09B301099597FDD4CFE80EF91EA8CF48
:10034000DF91CF911F910F91FF90EF90DF90CF90B1
:10035000BF90AF909F908F907F906F9008954F9235
:100360005F926F927F928F929F92AF92BF92CF9245
:10037000DF92EF92FF920F931F93CF93DF931F9221
:10038000CDB7DEB78C013B01FB01E080F1800E941C
:10039000FF209701261B370B2801FAE64F0E511C50
:1003A00041E050E0B201F801808191810E9490000B
:1003B000019721F0AA24AA94BA2C81C0F30180806D
:1003C00091800E94FF20861A970A55E0A52EB12C35
:1003D000E12CF12CCC24C394D12CF1E0AF1AB1085C
:1003E000F1F0940141E050E0BE016F5F7F4FF801F2
:1003F000808191810E949000019789F42981322F98
:100400003F773C9DC0013D9D900D1124E80EF91EE3
:10041000D694DC2CCC24D794C79427FDDECFB7012B
:10042000C80185599F4F0E94EB1D6C0183E690E047
:100430008C199D098E159F05DCF01E141F04ECF429
:10044000F301A080B1800E94FF209501261B370B8D
:10045000B60165597F4F600F711FA701F8018081B8
:1004600091810E9490008E159F0509F0A3CF05C0D1
:100470003EEFA32EBB24BA9422C0F201A080A29426
:100480002FE0A222B12CF801EA52FF4F8080918028
:1004900081149104A1F00E94FF206B017C01F801FE
:1004A000EE52FF4F28EE33E0D4010E941728C60E0B
:1004B000D71EE81EF91EC082D182E282F382C501F6
:1004C0000F90DF91CF911F910F91FF90EF90DF90F0
:1004D000CF90BF90AF909F908F907F906F905F90E4
:1004E0004F900895EF92FF920F931F93CF93DF9356
:1004F00000D000D0CDB7DEB78C01FC01EA52FF4F2F
:1005000080819181892B79F0C80182539F4F0E948D
:10051000000181110BC0C8018E529F4F0E94000143
:10052000811104C02BC080E090E02AC0780188EDE2
:10053000E80EF11CF7018081811120C00E94FF208C
:1005400068517C4F8F4F9F4F69837A838B839C8345
:1005500064E670E0C80106960E94FA1C1816190697
:100560006CF4AE014F5F5F4FBC01C8010E943501C2
:10057000009731F421E0F701208302C08FEF9FEF55
:100580000F900F900F900F90DF91CF911F910F91CF
:10059000FF90EF900895DC011296ED91FC91139776
:1005A0003097F9F02D913C91119721153105B9F053
:1005B00014968D919C911597AC015595479580FFA8
:1005C0000AC0D901A40FB51F0D90BC91A02DAE0F8C
:1005D000BF1FED91FC91C901840F951F0994CB01B8
:1005E00009940895AF92BF92CF92DF92EF92FF925B
:1005F0000F931F93CF93DF9300D000D0CDB7DEB71A
:100600007C018B016A015C018CEDA80EB11CD50147
:100610006D917C916115710509F449C0C8010E9472
:100620008C1F892BB9F5D8011496ED91FC91159783
:1006300012962D913C9113972E0F3F1FD5018D914E
:100640009C91A90141505109DC016D91CD016623B6
:10065000F1F0E217F30758F570817F32A9F06B32A1
:1006600061F4DF011196A217B30710F03196ECCFB9
:100670006C916F32D9F33196F4CF633211F4FA01F1
:10068000F5CF671799F313C06F3281F310C0E217EB
:10069000F30769F4C70182529F4FFC012081318129
:1006A000232BB9F4FC0122813381232B91F4C70160
:1006B0008C519F4FDC012D913C91232B51F4DC0197
:1006C00012962D913C911397232B19F48FEF9FEFE6
:1006D0000BC0DA82C9821C830B83BE016F5F7F4F20
:1006E0000E94CB0280E090E00F900F900F900F904F
:1006F000DF91CF911F910F91FF90EF90DF90CF90FE
:10070000BF90AF9008952F923F924F925F926F9259
:100710007F928F929F92AF92BF92CF92DF92EF9291
:10072000FF920F931F93CF93DF93CDB7DEB7609700
:100730000FB6F894DEBF0FBECDBF3C011B010E9477
:10074000AF012C0183E04816510491F03CF4C20142
:100750000296029708F05FC082015FC08DE04816E4
:10076000510409F058C0F301E852FF4F108253C002
:100770001C861B861E861D86188A1F86B4E68B2E55
:10078000912C53019AE6A90EB11CCE0109966C0179
:1007900002977C018E01055F1F4F9E012B5F3F4F2B
:1007A000AE014D5F5F4FBE016F5F7F4F03970E94A9
:1007B000FD1C019769F5AE014F5F5F4FB801C301A2
:1007C0000E94F20289819A81009729F18130910576
:1007D00029F40D811E8120E044E006C0029729F52E
:1007E0000D811E8120E045E064E670E0C3010696BD
:1007F0000E94712018161906C4F4A101BC01C3019E
:100800000E9435018C010F3F9FEF190731F408C09A
:1008100000E010E005C000E010E0C3010E94720299
:100820000115110529F0280103C00FEF1FEFF8CFC4
:10083000C20160960FB6F894DEBF0FBECDBFDF9148
:10084000CF911F910F91FF90EF90DF90CF90BF90CD
:10085000AF909F908F907F906F905F904F903F9060
:100860002F900895CF92DF92EF92FF920F931F93F4
:10087000CF93DF936C017B018A01CFEFDFEFC801DB
:100880000E940001811108C0B801C6010E948303C3
:10089000EC018E159F0599F7CE01DF91CF911F9145
:1008A0000F91FF90EF90DF90CF900895AF92BF929D
:1008B000CF92DF92EF92FF920F931F93CF93DF932C
:1008C00000D000D0CDB7DEB76C018A0159010E947B
:1008D00035017C01009791F5AA94AB2899F5A80100
:1008E00064E070E0C6010E943204049721F504E63A
:1008F00010E0960126593F4FAE014F5F5F4FBE019A
:100900006C5F7F4FCE0103960E948A1D019769F4A8
:10091000F601EF5AFE4F2081318189819A81281793
:10092000390731F41182108203C0EE24EA94FE2CC0
:10093000E114F10439F0EE24EA94FE2CF601E651BC
:10094000FF4F1082C7010F900F900F900F90DF9113
:10095000CF911F910F91FF90EF90DF90CF90BF90BC
:10096000AF9008954F925F926F927F92AF92BF9235
:10097000CF92DF92EF92FF920F931F93CF93DF936B
:1009800000D000D000D0CDB7DEB78C015B01DC0118
:100990001296CD90DC901397EE24D7FCE094FE2CB9
:1009A0000E94FF206C0D7D1D8E1D9F1D69837A8323
:1009B0008B839C837801BAEEEB0EF11CF7018081EA
:1009C000811189C03801F6ED6F0E711CD5011D969D
:1009D0008D919C911E97F30191838083339681E0E2
:1009E0001F969C91911101C080E080836801F6E020
:1009F000CF0ED11CA50164E670E0C6010E94B21BB7
:100A0000181619060CF067C0AE014F5F5F4FBC01AE
:100A1000C8010E943501009709F05FC0D301AD9075
:100A2000BC90A114B104A1F00E94FF202B013C0155
:100A300028EE33E0D5010E941728460E571E681E87
:100A4000791EF801EE52FF4F40825182628273821A
:100A5000AE014F5F5F4F62E070E0C8010E94320458
:100A60000297A1F48FEF8E831D8224E630E0A80167
:100A700046595F4FBE016A5F7F4FCE0105960E94C7
:100A8000841C019719F48E8190E002C08FEF9FEFD4
:100A9000F801EF5AFE4F20813181232BB1F0E65649
:100AA000F10984E6D60101900D928A95E1F7F801EB
:100AB000ED5AFE4F20813181349760817181AE0102
:100AC0004F5F5F4FC8010E945604009731F421E048
:100AD000F701208302C08FEF9FEF26960FB6F894A0
:100AE000DEBF0FBECDBFDF91CF911F910F91FF9061
:100AF000EF90DF90CF90BF90AF907F906F905F901E
:100B00004F9008950F931F93CF93DF93CDB7DEB728
:100B10002C970FB6F894DEBF0FBECDBF04E621E0E0
:100B200048EA60ECCE0107960E946924E0915703E1
:100B3000F09158030190F081E02D048515854985D9
:100B40005A856B857C85CE0101960E94752440E113
:100B500057E2BE016F5F7F4F80915703909158031A
:100B6000F801099583E0809310018BE491E0909364
:100B70001201809311016AE071E08EED91E00E9414
:100B8000B2042C960FB6F894DEBF0FBECDBFDF9136
:100B9000CF911F910F910895EF92FF920F931F93A2
:100BA00026E040E855E260E070E087E294E00E94D1
:100BB0001E2310EAE12E1FE0F12E00E010E020E6F7
:100BC0003AEE40E050E06DE371E08AED93E00E9480
:100BD000C90F1F910F91FF90EF900C9482050F9316
:100BE00000E020E040E060E086E693E00E946924B7
:100BF00089E593E00E948E1189E593E09093580374
:100C0000809357036FEB71E081E593E00E947526B6
:100C100087E593E09093DF018093DE011092AC02B0
:100C20001092AD021092AE021092AF021092B0027A
:100C30001092B1021092B2021092B3021092B90255
:100C40001092B8021092BD021092BC021092BF0224
:100C50001092BE021092C3021092C2021092C502FC
:100C60001092C4021092B6021092BB021092BA0205
:100C700080E395E7A0E0B0E08093E0019093E1018C
:100C8000A093E201B093E3011092C80210923003E6
:100C900010922F0310923203109231030F91089596
:100CA00081E593E00C9407260F931F93CF93DF9376
:100CB00000D000D000D0CDB7DEB787E294E00E942C
:100CC0003B22181619060CF045C069E587E294E04E
:100CD0000E94E72468EE73E080E090E00E942E21FD
:100CE00067E274E0CE0101960E94A825BE016F5F05
:100CF0007F4F81E593E00E94C126CE0101960E94BC
:100D0000072660E070E081E593E00E942427FC0163
:100D100080810E9426018C010097E1F0209155030B
:100D20003091560341E050E061E573E0CE01019659
:100D30000E94602720E030E04EE150E063E373E082
:100D4000CE0101960E943627CE0101960E94072609
:100D5000C80102C080E090E026960FB6F894DEBF8E
:100D60000FBECDBFDF91CF911F910F9108957F925C
:100D70008F929F92AF92BF92CF92DF92EF92FF92AB
:100D80000F931F93CF93DF93CDB7DEB764970FB662
:100D9000F894DEBF0FBECDBF8091C802811102C0A2
:100DA0000E9482050E945406892B09F46CC093E3CB
:100DB000E92E93E0F92EF70101900020E9F78F0169
:100DC00003531340C0903B01D0903C017B80809046
:100DD000E0019090E101AA2497FCA094BA2C0E9413
:100DE000FF20680D791D8A1D9B1D698B7A8B8B8B6B
:100DF0009C8B1E861D86188A1F868091C8028823B8
:100E000009F441C0DC86CB861F930F93FF92EF92CB
:100E10008B849C84AD84BE84CF84D888E12CF12C53
:100E2000072D20E030E040E064E670E084EE91E0E1
:100E30000E94E31F8C010F900F900F900F901816D7
:100E400019060CF58091B702811113C0A80164EE58
:100E500071E089EC92E00E94A72A10923003109270
:100E60002F0310932E0300932D0310923203109240
:100E7000310320E030E0AE014F5E5F4FB8018EEDF0
:100E800091E00E94560464960FB6F894DEBF0FBE40
:100E9000CDBFDF91CF911F910F91FF90EF90DF9029
:100EA000CF90BF90AF909F908F907F900895CF93F9
:100EB000CFB7F89480916F03811127C0EAE9F0E081
:100EC0008491E6E8F0E09491E82FF0E0EE0FFF1F48
:100ED000E255FF4FA591B4918C91892321F461E0F3
:100EE0008AE00E94052261E08AE00E94CC218CB554
:100EF00080618CBD8CB580648CBD61E08DE00E940A
:100F0000CC2161E08BE00E94CC2180916F038F5F48
:100F100080936F03CFBFCF9108950E9624E1FC011B
:100F200011922A95E9F70895CF93DF93EC01625F60
:100F30007F4F0E947F24CE01DF91CF910895CF9300
:100F4000DF93EC016E5E7F4F0E947F24CE01DF9124
:100F5000CF910895CF93DF93EC016A5E7F4F0E949B
:100F60007F24CE01DF91CF910895CF93DF93EC01E1
:100F7000625E7F4F0E947F24CE01DF91CF91089562
:100F800080E3FB0180833296842F82958F7090E1FD
:100F9000899F401911244A3014F4405D01C0495C16
:100FA0004293882311F0482FEFCF08950F9300E06C
:100FB00020E040E060E080E793E00E9469240F9128
:100FC00008956F927F928F929F92AF92BF92CF922D
:100FD000DF92EF92FF920F931F93CF93DF93CDB7E2
:100FE000DEB7AC970FB6F894DEBF0FBECDBF7C0165
:100FF000862EB42EA52E20E2922ECE0101966C01F3
:10100000FC01292D11922A95E9F70FEF2FEF4FEFF1
:101010006FEF86960E9469248BED91E09AA389A3D5
:1010200089A59AA5ABA5BCA58BA39CA3ADA3BEA384
:1010300087010D5B1F4F43E450E0BE016F5D7F4FA2
:10104000C8010E94C412019609F4BFC081E08983DF
:101050008A8386E0782E7B821C82F7016481758109
:10106000868197810E9410286D837E838F83988765
:10107000A986BA8680E890E09C878B874CE150E097
:10108000B601C8010E94D012F601292D11922A95AD
:10109000E9F7570188E0A80EB11CF501D6010190CF
:1010A0000D927A94E1F740E150E0B601C8010E9448
:1010B000D012F60111929A94E9F796E0692E712CFC
:1010C00040E250E0B601C8010E94D012F1E06F1A70
:1010D0007108B1F783E6898392E89A8393E59B834D
:1010E0008C8385E38D8381E08E838F829DE3988757
:1010F00097E099878A8786E0F501DE011B960190CB
:101100000D928A95E1F78CE0898B8A8B6AE671E013
:10111000CE0143960E94B02AF7014385BE01675E67
:101120007F4FC7010E94C007F7014485BE01655E7D
:101130007F4FC7010E94C007F7014585BE01635E6E
:101140007F4FC7010E94C0074EE150E0B601C801C1
:101150000E94D012F3E08F121EC082E3898384E0E4
:101160008A83F70196859B8397859C8390899D83CD
:1011700091899E8396E39F838887828D8987838D5B
:101180008A87848D8B87858D8C874CE050E0B601F3
:10119000C8010E94D01287E3898386E08A8391E0A8
:1011A0009B8393E09C838D838FE08E838AE38F8380
:1011B0008BE388878FEF898749E050E0B601C8014B
:1011C0000E94D012C8010E94CC12AC960FB6F894BF
:1011D000DEBF0FBECDBFDF91CF911F910F91FF906A
:1011E000EF90DF90CF90BF90AF909F908F907F90C7
:1011F0006F9008952F923F924F925F926F927F92DD
:101200008F929F92AF92BF92CF92DF92EF92FF9216
:101210000F931F93CF93DF93CDB7DEB7E3970FB64E
:10122000F894DEBF0FBECDBF7C012A013B016901EE
:101230000E94FF204B015C0187010D5B1F4FC8011D
:101240000E9470131816190694F00E94FF20681966
:1012500079098A099B094616570668067906F0F04F
:1012600062E370E080E090E00E942E21E8CF42E24D
:1012700050E0BE016F5F7F4FC8010E940D1389814E
:10128000823031F4F801848995898334910541F0E5
:1012900019A6C8010E94AE1289A566C18FEF64C16C
:1012A0006D817E818F8198850E9410284B015C01A1
:1012B000F601608371838283938346E050E0B70137
:1012C000685F7F4FCE014D960E949A2A892B99F430
:1012D000F70180819181A281B38188169906AA06BF
:1012E000BB0648F084819581A681B7818815990550
:1012F000AA05BB0528F4C8010E94AE1280E034C1E3
:1013000089899A89AB89BC89F70186879787A08BE1
:10131000B18B3EECC32ED12CC8010E94E412F1E047
:10132000CF1AD108C9F719A6C70182969BA78AA729
:10133000F701B696FDA7ECA708969FA78EA73C9746
:101340006F01899699AB88AB3897FBABEAAB570135
:10135000F6E1AF0EB11C47018EE1880E911CC80169
:101360000E949412181619060CF093CFC8010E941F
:10137000E4128333910509F4CDC0F4F48130910572
:10138000B9F11CF4892B59F3DFC083309105C1F109
:10139000069709F0D9C0C8010E94E4123C0144E05C
:1013A00050E0B401C8010E940D13212C312C772488
:1013B000F4E06F1A71083FC08A33910509F47EC0CA
:1013C0003CF48533910561F0C69709F43FC0BCC079
:1013D0008B33910509F488C08F3F910501F2B4C0A9
:1013E000C8010E94E412C8010E94E41289A7B7CF85
:1013F000C8010E94E41244E050E06AA97BA93AC007
:10140000C8010E94E4123C0144E050E0B501C8016B
:101410000E940D13212C312C772494E0691A710855
:10142000261437040CF09BCFC8010E94E412EFEFA2
:101430002E1A3E0AF5CF261437040CF090CFC801BF
:101440000E94E4128FEF281A380AF5CFC8010E94D3
:10145000E412782EF701828D811110C0838D8111E5
:101460000DC0848D81110AC0858D811107C044E0B3
:1014700050E0B601C8010E940D1371CFE8A9F9A987
:101480002080318042805380B601CE0183960E9435
:101490007F248DA19EA1AFA1B8A582159305A405B7
:1014A000B50529F3212C312C721409F458CFC80149
:1014B0000E94E412FFEF2F1A3F0AF6CFC8010E94E4
:1014C000E41244E050E06CA57DA5C8010E940D1314
:1014D000F70166A177A180A591A50E94102866A3B7
:1014E00077A380A791A73BCFC8010E94E41244E0F4
:1014F00050E06EA57FA5C8010E940D13F70162A5FB
:1015000073A584A595A50E94102862A773A784A738
:1015100095A725CFC8010E94E41244E050E06AA5D7
:101520007BA5C8010E940D13F70162A173A184A1DC
:1015300095A10E94102862A373A384A395A366A714
:1015400077A780AB91AB0BCFC8010E94E412382E75
:10155000612C712C361409F402CFC8010E94E412E8
:10156000FFEF6F1A7F0AF6CFE3960FB6F894DEBF4F
:101570000FBECDBFDF91CF911F910F91FF90EF90E4
:10158000DF90CF90BF90AF909F908F907F906F90A3
:101590005F904F903F902F9008952F923F924F92DF
:1015A0005F926F927F928F929F92AF92BF92CF92F3
:1015B000DF92EF92FF920F931F93CF93DF9300D0B0
:1015C00000D01F92CDB7DEB78C0120ED37E040E0B0
:1015D00050E061E070E080E090E00E94E625D801F4
:1015E00014966D937D938D939C931797F801608368
:1015F0007183828393834801F3E48F0E911CC401AD
:101600000E94AF1264E470E0C4010E944313882377
:1016100009F434C10E94FF206B017C01212C312C84
:101620001D82580182E4A80EB11C48EE442E43E00E
:10163000542E612C712CF5018081833009F405C191
:1016400081111FC0F80184819581A681B78101961F
:10165000A11DB11D84839583A683B7830E94FF20BB
:101660006C197D098E099F09A30192010E94C92767
:10167000A90161E0C8010E94E10781E0D5018C93D6
:10168000C6C08430F9F4F80184819581A681B781C0
:101690000196A11DB11D84839583A683B7830E9403
:1016A000FF206C197D098E099F09A30192010E94F8
:1016B000C927A90163E0C8010E94E107E2E0D50162
:1016C000EC93A5C0813069F5D801DA964D915D9112
:1016D0006D917C91DD979E012F5F3F4FC8010E9465
:1016E000FA088D83823009F092C089819A81AB819A
:1016F000BC81F80184839583A683B7830E94FF2071
:101700006C197D098E099F09A30192010E94C927C6
:10171000A90163E0C8010E94E107ED81D501EC93C6
:101720007CC0823009F073C0D801DA964D915D918A
:101730006D917C91DD979E012F5F3F4FC8010E9404
:10174000FA088D83853009F05CC083E0F501808361
:10175000F80182A193A1A4A1B5A1892B8A2B8B2B7F
:1017600041F484E893E0A0E0B0E082A393A3A4A3B3
:10177000B5A3F80186A197A1A0A5B1A5892B8A2BB5
:101780008B2B61F482A193A1A4A1B5A1B695A795D5
:101790009795879586A397A3A0A7B1A7F80182A5DF
:1017A00093A5A4A5B5A5892B8A2B8B2BA9F482A17F
:1017B00093A1A4A1B5A1AC01BD0123E076956795E5
:1017C000579547952A95D1F7841B950BA60BB70B18
:1017D00082A793A7A4A7B5A7F80186A197A1A0A562
:1017E000B1A586A797A7A0ABB1AB82A593A5A4A5E9
:1017F000B5A582AB93ABA4ABB5AB22242394312C1B
:101800000CC0FD81F63019F4D5011C9206C0BD81D3
:10181000BF3F19F4F50110821D82F1E02F1631044B
:1018200009F409CF0E94FF206C197D098E099F09D8
:10183000D801D6962D913D914D915C91D99726175F
:1018400037074807590708F0F6CEC4010E94AF12C7
:10185000F80184819581A681B7810196A11DB11DF2
:1018600084839583A683B7830E94FF20F801FE96A8
:101870006083718382839383C10102C080E090E022
:101880000F900F900F900F900F90DF91CF911F91BD
:101890000F91FF90EF90DF90CF90BF90AF909F900F
:1018A0008F907F906F905F904F903F902F90089512
:1018B000CF92DF92EF92FF920F931F93CF93DF931C
:1018C000EC016B011AA21BA21CA21DA21EA21FA248
:1018D00018A619A61AA61BA61CA61DA62EAB3FABC2
:1018E00048AF59AFEAAEFBAE0CAF1DAF8C01085F3D
:1018F0001F4F86E0F80111928A95E9F7CE010E9408
:101900008D0786E0F601D80101900D928A95E1F7E6
:10191000FE01EE5BFF4F1082CE01DF91CF911F9150
:101920000F91FF90EF90DF90CF900C94CD0AFB01C8
:101930004281538164817581FC01428353836483B6
:101940007583178216820895FB0120E080E090E005
:101950006AE03191332309F170ED730F7A3080F42E
:10196000DC016A9FC0016B9F900D1124C097830F0B
:10197000911D37FD9A958F3F910559F350F314C08F
:101980003E3291F4233081F0DA01A20FB11D12969C
:101990008C932F5F80E090E0DCCF233029F4FA01B4
:1019A000858381E090E0089580E090E008950F93B2
:1019B00000E020E040E060E086E793E00E946924D8
:1019C0000F910895AF92BF92CF92DF92EF92FF9264
:1019D0000F931F93CF93DF9300D000D01F92CDB70A
:1019E000DEB78C017B010E94FF20F80177836683BC
:1019F0007627672776277A836983085F1F4F42E03F
:101A000050E0BE016F5F7F4FC8010E94D01281E09D
:101A100090E09C838B8342E050E0BE016D5F7F4F7E
:101A2000C8010E94D01280E091E09C838B8342E049
:101A300050E0BE016D5F7F4FC8010E94D0121C8232
:101A40001B8242E050E0BE016D5F7F4FC8010E94E3
:101A5000D01242E050E0BE016D5F7F4FC8010E948E
:101A6000D01242E050E0BE016D5F7F4FC8010E947E
:101A7000D0126701F6018081882311F1F7016F010F
:101A80008191811115C05601AE18BF081A141B04AC
:101A900094F4AD8241E050E0BE016B5F7F4FC8011E
:101AA0000E94D012A501B701C8010E94D01203C044
:101AB0008E3229F7E8CF7601FFEFEF1AFF0ADACF6F
:101AC0001D8241E050E0BE016B5F7F4FC8010E9464
:101AD000D012E12CFF24F394FC82EB8242E050E030
:101AE000BE016D5F7F4FC8010E94D012FC82EB8265
:101AF00042E050E0BE016D5F7F4FC8010E94D012EE
:101B000081E090E00F900F900F900F900F90DF9179
:101B1000CF911F910F91FF90EF90DF90CF90BF90EA
:101B2000AF9008954F925F926F927F928F929F92A3
:101B3000AF92BF92CF92DF92EF92FF920F931F93DB
:101B4000CF93DF93CDB7DEB763970FB6F894DEBFC0
:101B50000FBECDBF7C015B016A010E94FF202B01FB
:101B60003C018701085F1F4F4501A12CB12CC80122
:101B70000E9470131816190694F00E94FF20641931
:101B800075098609970986169706A806B906D0F042
:101B900062E370E080E090E00E942E21E8CFF70140
:101BA0004281538164817581808D918DA28DB38D29
:101BB000481759076A077B0741F4848D958DC597AF
:101BC00021F406C08FEF9FEFFAC08EEF9FEFF7C0B2
:101BD000C8010E9494120C97ECF04CE050E0BE015A
:101BE0006F5F7F4FC8010E940D136C818B810E9433
:101BF00002269A8B898BF701E680F7806A818981BA
:101C00000E940226E816F90641F489899A8997FF0D
:101C100004C009C08DEF9FEFD2C0C8010E94AE1270
:101C20008CEF9FEFCCC08F709270892B31F0C80180
:101C30000E94AE128BEF9FEFC2C068858F810E9419
:101C400002265C01009719F0E12CF12C23C0C80199
:101C50000E94AE128AEF9FEFB2C041E050E0BE0199
:101C6000635F7F4FC8010E940D138D8581111AC0DB
:101C70008D858111F2CFC8010E94E412C8010E9433
:101C8000E412C8010E94E412C8010E94E412FFEFAE
:101C9000EF1AFF0A6E818D810E940226E816F9066E
:101CA000E0F20AC08D859FEF980F9D87882301F38E
:101CB000C8010E94E412F6CFE12CF12C41E050E083
:101CC000BE016D5E7F4FC8010E940D138B89982F56
:101CD000907C61F4882371F08B899FEF980F9B8B28
:101CE000882341F0C8010E94E412F6CFC8010E9487
:101CF000E4121B8A8B898111E1CF42E050E0BE01E2
:101D0000615F7F4FC8010E940D1342E050E0BE01A9
:101D1000635F7F4FC8010E940D13C8010E94E41247
:101D2000C8010E94E412C8010E94E412C8010E9486
:101D3000E41242E050E0BE016F5E7F4FC8010E9496
:101D40000D138F8598898115914029F48D859E8585
:101D50008115914019F0812C912C16C089899A899E
:101D60008115944031F0C8010E94AE1287EF9FEFB9
:101D700026C0B6016E5F7F4F44E050E0C8010E946C
:101D80000D1381E090E01BC089899A8998278927E3
:101D900098278816990638F4C8010E94E4122FEF9C
:101DA000821A920AF1CF8FEFE81AF80AEA14FB04BC
:101DB00009F084CFC8010E94AE1286EF9FEF6396B0
:101DC0000FB6F894DEBF0FBECDBFDF91CF911F914C
:101DD0000F91FF90EF90DF90CF90BF90AF909F90CA
:101DE0008F907F906F905F904F9008958F929F9209
:101DF000AF92BF92CF92DF92EF92FF920F931F9319
:101E0000CF93DF9300D000D000D0CDB7DEB78C01E8
:101E10005B016A010E94A40C4C01009709F05DC0AF
:101E2000F80142815381648175818091780390919A
:101E30007903A0917A03B0917B03481759076A0789
:101E40007B0709F44EC00E94FF207801F8E0EF0EF6
:101E5000F11C6F7077277C5FC7010E9443138130AC
:101E600009F043C08BED91E09A838983F801828168
:101E70009381A481B5818B839C83AD83BE8345E32D
:101E800050E0BE016F5F7F4FC7010E94C412892BD3
:101E900019F4812C912C1DC0B501C8010E94E20CDF
:101EA000892BB9F3C7010E94CC12892B91F333E03F
:101EB000A32EB12CA60168E873E1C8010E94920D1F
:101EC0004C01F1E0AF1AB10821F08F3F2FEF9207DC
:101ED00089F3C7010E94AF1208C088248394912C13
:101EE00004C09EEF892E99249A94C40126960FB6B9
:101EF000F894DEBF0FBECDBFDF91CF911F910F9140
:101F0000FF90EF90DF90CF90BF90AF909F908F9019
:101F1000089520916E03222399F03FB7F894209101
:101F20006E03213059F42DB320936C034DB32091EF
:101F30006D03209524232DBB3FBF02C030936C035B
:101F40008CBD9DBD089580916E03882361F09FB77D
:101F5000F89420916E0380916C03213019F48DBBAD
:101F60009FBF08958FBF089544E050E0BC0181E019
:101F700090E00C943F1944E050E0BC0185E090E013
:101F80000C943F1944E050E0BC018FE090E00C94C9
:101F90003F192F923F924F925F926F927F928F9252
:101FA0009F92AF92BF92CF92DF92EF92FF920F93E8
:101FB0001F93CF93DF9300D000D000D0CDB7DEB712
:101FC0006C011B0129013A01470158018091E2038C
:101FD000811107C08FEB93E00E94561481E080933B
:101FE000E2038CE793E0F601978386838CE094E02C
:101FF0000E94D71880E590E00E94890F46E050E0EB
:10200000B10189E090E00E943F1900E020E040E04B
:1020100060E0CE0101960E946924CE0103960E94E1
:10202000C20F0E94A30F85017401A3019201B101A7
:10203000F601868197810E94580C5C0181309105E0
:10204000B9F580E590E00E94890FF60166817781FD
:10205000CE0101960E949407CE0103960E94C20F02
:10206000F60166817781CE0101960E94AA07CE0112
:1020700003960E94B40FF60166817781CE01019626
:102080000E949F07CE0103960E94BB0F0E94A30FE0
:10209000F60166817781CE0101960E94B5074B81DA
:1020A0005C816D817E81F6014283538364837583F5
:1020B000C50126960FB6F894DEBF0FBECDBFDF91E7
:1020C000CF911F910F91FF90EF90DF90CF90BF9035
:1020D000AF909F908F907F906F905F904F903F90C8
:1020E0002F9008952BED31E0FC0131832083FB011B
:1020F0004281538164817581FC01428353836483EF
:10210000758308950F9300E020E040E060E082EFE7
:1021100093E00E9469248AED93E00F910C945F2470
:1021200081E086270895862F0895DC01ED91FC91CA
:10213000048CF58DE02D099591E089270895CF93C2
:10214000DF931F92CDB7DEB76983DC01ED91FC917F
:102150000280F381E02D41E050E0BE016F5F7F4FD0
:1021600009950F90DF91CF91089521E0FC018485BE
:10217000843009F420E0822F0895FC019485FB014E
:102180008485981303C081E0943009F480E00895B9
:102190000F931F93CF93DF93EC018A018C858430DA
:1021A00021F00E947916892B39F481E090E09B831D
:1021B0008A8380E090E001C0C801DF91CF911F9138
:1021C0000F910895FC018485843011F00C947017F0
:1021D00080E090E00895CF93DF931F92CDB7DEB7F4
:1021E00041E050E0BE016F5F7F4FFC0184850E949B
:1021F0001017181619061CF4898190E002C08FEFA1
:102200009FEF0F90DF91CF910895FC0184850C948E
:1022100010170F931F93CF93DF931F92CDB7DEB7A5
:102220008C01DC01ED91FC910480F581E02D099594
:10223000892B51F0BE016F5F7F4FF80184850E94AA
:102240009B17898190E002C08FEF9FEF0F90DF9185
:10225000CF911F910F910895FC0184850C94CA17AA
:10226000CF92DF92EF92FF920F931F93CF93DF9362
:10227000CDB7DEB7AF970FB6F894DEBF0FBECDBFB8
:102280007C018B016A01CE0101960E945F24CE0180
:1022900009960E945614CE018A960E945F246AED28
:1022A00073E0CE0184960E947210BE016C5D7F4F78
:1022B000CE0101960E94970CAE01465D5F4FB801BA
:1022C000CE0101960E94F60E81309105C1F4D7012E
:1022D000ED91FC910484F585E02D8BED91E09DA3BB
:1022E0008CA30CA51DA52EA53FA50EA31FA328A753
:1022F00039A7A601BE016C5D7F4FC7010995AF9656
:102300000FB6F894DEBF0FBECDBFDF91CF911F9106
:102310000F91FF90EF90DF90CF900895FC01138212
:10232000128248EE53E060E070E044835583668398
:10233000778385E791E09183808384E084870895A3
:10234000FC018485843011F00C94551580E00895CB
:10235000DF92EF92FF920F931F93CF93DF93EC01E5
:102360007B018A018C85843009F045C0D12C8D2DEC
:102370000E945515811102C0DC8607C08B7F883111
:10238000D9F3D39484E0D812F2CF8C85843099F1BC
:1023900020914301309144012F5F3F4F11F420E021
:1023A00030EC30934401209343014091430150911C
:1023B000440120E061E00E94A715B7016E5F7F4FE6
:1023C000A8018C850E94FB15811103C084E08C87D5
:1023D00012C0CE010E94A011873151F061E070E07F
:1023E00080E090E00E942E21CE010E94A011ECCF4F
:1023F00081E090E002C080E090E0DF91CF911F91FA
:102400000F91FF90EF90DF900895CF92DF92EF92BF
:10241000FF92CF93DF93EC018C85843049F10E94C9
:1024200053160E94FF206B017C01CE010E94A01177
:102430008823A1F061E070E080E090E00E942E210E
:102440000E94FF206C197D098E099F09683E734028
:102450008105910550F38C850E947D15EC85F0E097
:10246000EE0FFF1FE651FC4F1182108284E08C8733
:10247000DF91CF91FF90EF90DF90CF900895CF93B1
:10248000DF93EC018C858430D1F0CE010E94A01145
:102490008431A9F0882399F0883189F08C3169F46E
:1024A000E881F9810480F581E02DCE01099521E0D4
:1024B000892B09F420E0822F03C081E001C080E075
:1024C000DF91CF9108950F9300E020E040E060E0BD
:1024D00088EF93E00E9469240F9108950F9300E024
:1024E00020E040E060E08EEF93E00E9469240F91CD
:1024F0000895DC01ED91FC91008CF18DE02D0994A3
:102500002BED31E0FC0131832083FB0140895189AF
:1025100062897389FC0142835383648375830895C0
:10252000FC01848995890895FC01818D928D08951F
:10253000CF93DF931F92CDB7DEB76983DC01ED91B6
:10254000FC910280F381E02D41E050E0BE016F5F1D
:102550007F4F09950F90DF91CF9108950895CF9304
:10256000DF93EC01888D843061F00E947D15E88D49
:10257000F0E0EE0FFF1FE651FC4F1182108284E065
:10258000888FDF91CF910895FC01178A168A6E5FBC
:102590007F4F808D0C941218FC01808D0C9458187C
:1025A000CF93DF93EC019A018E899F89AB01BC0127
:1025B000888D0E94CB172E893F89280F391F3F8BAA
:1025C0002E8BDF91CF9108950F931F93CF93DF93BD
:1025D0001F92CDB7DEB78C01FC01818D928D892BC6
:1025E00059F041E050E0BE016F5F7F4F808D0E9447
:1025F0001017181619061CF08FEF9FEF08C0F8018E
:10260000818D928D0197928F818F898190E00F90BB
:10261000DF91CF911F910F910895CF93DF93EC013C
:10262000898D9A8D009719F48FEF9FEF10C048178E
:10263000590708F0AC01888D0E941017181619066A
:102640009CF7298D3A8D281B390B3A8F298FDF9102
:10265000CF910895CF93DF931F92CDB7DEB7FC01E2
:10266000218D328D232B49F0BE016F5F7F4F808D0E
:102670000E949B17898190E002C08FEF9FEF0F901F
:10268000DF91CF910895FF920F931F93CF93DF9324
:10269000EC018B01888D8430E1F4F12C8F2D0E94A8
:1026A0005515811102C0F88E06C08831E1F3F3940C
:1026B00084E0F812F3CF888D843059F01D870C87A1
:1026C0001A8E198E20E0A80162E00E94A71581E011
:1026D00001C080E0DF91CF911F910F91FF9008958D
:1026E0000F931F93CF93DF93CDB7DEB728970FB625
:1026F000F894DEBF0FBECDBF8C01F801818D928DA5
:10270000892B49F0D801ED91FC910680F781E02DED
:10271000C8010995F2CF808D0E947017181619060E
:1027200044F548E050E0BE016F5F7F4FD8015896F6
:102730008C910E94101718161906ECF4BE016F5FF9
:102740007F4FC8010E960E948F248D8190E0982FB4
:1027500088272E81820F911DF801958B848B8F81A4
:1027600090E0982F88272885820F911D928F818F66
:1027700002C080E090E028960FB6F894DEBF0FBE4E
:10278000CDBFDF91CF911F910F9108958F929F92AE
:10279000AF92BF92CF92DF92EF92FF920F931F936F
:1027A000CF93DF9300D000D000D0CDB7DEB78C013F
:1027B0007B014A01FC01808D843009F063C073E025
:1027C000A72E74E0B72EC12CD12CC5010E946E1922
:1027D000811103C0F801C08E0AC08831D9F3FFEF20
:1027E000CF1ADF0AB394E4E0CE16D10471F7F801F2
:1027F000808D843009F446C096E0E5E4F1E0DE0126
:10280000119601900D929A95E1F7F70193819F77C8
:102810009C8394819D8395819E83B7016E5F7F4FDA
:1028200090E0982F882744E050E0845F9B4F0E94FF
:102830003F19F801808D90E00496F82EEE24692D62
:10284000C70140960E94B518682DC70141960E94A5
:10285000B518F801808D90E0982F882746E050E069
:10286000BE016F5F7F4F8A5F9B4F0E943F19F80147
:10287000128E118E20E8A40162E0808D0E94A715BF
:1028800081E001C080E026960FB6F894DEBF0FBE4F
:10289000CDBFDF91CF911F910F91FF90EF90DF900F
:1028A000CF90BF90AF909F908F900895CF93DF937C
:1028B000EC011B821A8248EE53E060E070E04C832A
:1028C0005D836E837F8389E991E099838883CE015C
:1028D0000E960E945F2484E0888FDF91CF91089547
:1028E000CF92DF92EF92FF920F931F93CF93DF93DC
:1028F000CDB7DEB7AF970FB6F894DEBF0FBECDBF32
:102900007C018B016A01CE0101960E945F24CE01F9
:1029100009960E945614CE018A960E945F246AEDA1
:1029200073E0CE0184960E947210BE016C5D7F4FF1
:10293000CE0101960E94970CAE01465D5F4FB80133
:10294000CE0101960E94F60E81309105C1F4D701A7
:10295000ED91FC910088F189E02D8BED91E09DA334
:102960008CA30CA51DA52EA53FA50EA31FA328A7CC
:1029700039A7A601BE016C5D7F4FC7010995AF96CF
:102980000FB6F894DEBF0FBECDBFDF91CF911F9180
:102990000F91FF90EF90DF90CF9008950F9300E09C
:1029A00020E040E060E084E094E00E9469240F9120
:1029B0000895CF92DF92EF92FF920F9330E0C12CF7
:1029C000F2E1DF2EFAE7EF2EF12C4C155D056E05D6
:1029D0007F0540F4F694E794D794C7943F5F363070
:1029E000A1F737E041E04327211102C050E701C0C1
:1029F00050E5242F30E03595279523700C70202B5F
:102A0000252BFC012083417041830F91FF90EF90B3
:102A1000DF90CF90089590E0982F882744E050E011
:102A2000845F9B4F0C943F19282F30E02C5F3F4F61
:102A3000922F8827860F971F0C946E1962E070E022
:102A40000C941415FB01282F30E02C5F3F4F922F80
:102A50008827642F8E0F9F1F0C94B518CF93DF9398
:102A6000C82FD62F472F64E070E00E9422154D2F0B
:102A700065E070E08C2FDF91CF910C942215462FEA
:102A800062E070E00C942215CF93DF93C82FD62F0D
:102A9000472F60E170E00E9422154D2F61E170E048
:102AA0008C2FDF91CF910C9422150F931F93CF930E
:102AB000DF9300D01F92CDB7DEB7182F00E021E0E2
:102AC00040E059E06DE370E0CE0101960E94D91418
:102AD00089819A810E94890F63E070E0812F0E94B2
:102AE00014158B830E94A30F8B810F900F900F9072
:102AF000DF91CF911F910F9108950F931F93CF9363
:102B0000DF9300D0CDB7DEB7182F00E021E040E022
:102B100059E06DE370E0CE0101960E94D9148981DD
:102B20009A810E94890F40E150E0612F8CE094E08F
:102B30000E94381B6FEF812F0E943F150E94A30F48
:102B40000F900F90DF91CF911F910F910895CF9229
:102B5000DF92EF92FF920F931F93CF93DF9300D0FA
:102B6000CDB7DEB7182FD62E7A01C22E8FEF860F83
:102B70008530A8F5812F0E947D1500E021E040E01E
:102B800059E06DE370E0CE0101960E94D91489816D
:102B90009A810E94890F4D2D4C2960E070E0812FB1
:102BA0000E942215E114F10411F0B7010AC06091EE
:102BB0000A0470910B046F5F7F4F70930B04609356
:102BC0000A04812F0E942E1541E050E0612F8CE015
:102BD00094E00E94381B0E94A30F81E001C080E0B6
:102BE0000F900F90DF91CF911F910F91FF90EF9079
:102BF000DF90CF900895CF92DF92EF92FF920F93E4
:102C00001F93CF93DF9300D0CDB7DEB7182F7B0192
:102C10006A01FB0180818F3F51F481818F3F99F4DC
:102C200082818F3F81F483818F3F69F430C08111AD
:102C30000AC0FB018181811106C08281811103C01C
:102C40008381882321F1C114D10409F100E021E03E
:102C500040E059E06DE370E0CE0101960E94D91486
:102C600089819A810E94890FB701812F0E940B15DB
:102C7000B601812F0E94441544E050E0612F8CE0A2
:102C800094E00E94381B0E94A30F81E001C080E005
:102C90000F900F90DF91CF911F910F91FF90EF90C8
:102CA000DF90CF9008950F931F93CF93DF9300D0C1
:102CB000CDB7DEB7182F00E021E040E059E06DE32A
:102CC00070E0CE0101960E94D91489819A810E94F8
:102CD000890F48E050E0612F8CE094E00E94381B9F
:102CE0000E94A30F0F900F90DF91CF911F910F9132
:102CF0000895BF92CF92DF92EF92FF920F931F93AE
:102D0000CF93DF9300D01F92CDB7DEB7B82E6B0103
:102D10007A01413088E0580718F0E12C98E0F92E4C
:102D200000E021E040E059E06DE370E0CE01019663
:102D30000E94D91489819A810E94890F6B2D8CE0A1
:102D400094E00E94A6198C0163E070E08B2D0E9434
:102D500014158B830E94A30F8B81873111F08C3166
:102D600031F40E94B4200E151F05D0F202C0E12CF0
:102D7000F12C00E021E040E059E06DE370E0CE018D
:102D800001960E94D91489819A810E94890F970126
:102D9000A6016B2D8CE094E00E94651A40E250E0A1
:102DA0006B2D8CE094E00E94381B8B2D0E941E1529
:102DB00084FD22C063E070E08B2D0E941415811108
:102DC00008C00E94A30F8B2D0E947D1580E090E02B
:102DD0001AC00E94A30F0E94B42000E021E040E04E
:102DE00059E06DE370E0CE0101960E94D91489810B
:102DF0009A810E94890FD9CF60E18B2D0E943F15E7
:102E00000E94A30FC7010F900F900F90DF91CF91F9
:102E10001F910F91FF90EF90DF90CF90BF9008959A
:102E2000AF92BF92CF92DF92EF92FF920F931F93D8
:102E3000CF93DF9300D0CDB7DEB7182F5B016A01C7
:102E400000E021E040E059E06DE370E0CE01019642
:102E50000E94D91489819A810E94890F612F8CE088
:102E600094E00E94DA197C010097A1F463E070E01D
:102E7000812F0E941415843119F1882309F121E072
:102E800030E08C3111F420E030E0EE24FF24E21A2F
:102E9000F30A16C0C816D9060CF476011E141F04D6
:102EA0007CF400E09701A501612F8CE094E00E9482
:102EB000E81A40E450E0612F8CE094E00E94381B57
:102EC0000E94A30FC7010F900F90DF91CF911F9128
:102ED0000F91FF90EF90DF90CF90BF90AF9008954B
:102EE0000F931F93CF93DF9300D000D0CDB7DEB701
:102EF000182F00E021E040E059E06DE370E0CE01E2
:102F000001960E94D91489819A810E94890F612FAC
:102F10008CE094E00E94DA198B839C830E94A30FBB
:102F20008B819C810F900F900F900F90DF91CF912C
:102F30001F910F910895EF92FF920F931F93CF93DC
:102F4000DF9300D0CDB7DEB7182F7B0100E021E082
:102F500040E059E06DE370E0CE0101960E94D91483
:102F600089819A810E94890F01E021E030E0A70168
:102F7000612F8CE094E00E94E81A0E94A30F81E088
:102F800090E00F900F90DF91CF911F910F91FF90E4
:102F9000EF90089508959F92AF92BF92CF92DF92E3
:102FA000EF92FF920F931F93CF93DF9300D0CDB793
:102FB000DEB7982E6B015A01790100E021E040E074
:102FC00059E06DE370E0CE0101960E94D914898129
:102FD0009A810E94890F692D8CE094E00E94A619C5
:102FE0008E159F0530F4692D8CE094E00E94A6199F
:102FF0007C0187019501A601692D8CE094E00E9477
:10300000F6190E94A30FC7010F900F90DF91CF9187
:103010001F910F91FF90EF90DF90CF90BF90AF90F6
:103020009F900895CF92DF92EF92FF920F931F939C
:10303000CF93DF9300D0CDB7DEB7182F7B016A01A5
:10304000FB018081811109C08181811106C08281CB
:10305000811103C083818823F1F0C114D104D9F018
:1030600000E021E040E059E06DE370E0CE01019620
:103070000E94D91489819A810E94890FB701812FFA
:103080000E940B15B601812F0E9444150E94A30FC8
:1030900081E090E002C080E090E00F900F90DF911F
:1030A000CF911F910F91FF90EF90DF90CF900895F7
:1030B0000F931F93CF93DF9300D0CDB7DEB7182FB8
:1030C00000E021E040E059E06DE370E0CE010196C0
:1030D0000E94D91489819A810E94890F40E250E0B0
:1030E000612F8CE094E00E94381B812F0E941E15F6
:1030F00084FD21C0812F0E941E1583FF09C068E155
:10310000812F0E943F150E94A30F80E090E01BC01A
:103110000E94A30F0E94B42000E021E040E059E0AB
:103120006DE370E0CE0101960E94D91489819A81E5
:103130000E94890FDACF60E1812F0E943F150E9423
:10314000A30F81E090E00F900F90DF91CF911F913E
:103150000F9108958EBD00000DB407FEFDCF8EB512
:1031600008952A9808952A9A08951F93CF93DF937C
:1031700000D0CDB7DEB7182F6A8399830E94B118AB
:1031800080EF0E94AA189981892F0E94AA18812F86
:103190000E94AA186A81862F0E94AA180E94B3185A
:1031A00081E00F900F90DF91CF911F910895CF9301
:1031B000DF93EC016CE271E080E090E00E942E2150
:1031C0000E945707229A80916E03882399F09FB737
:1031D000F89480916E03813059F48DB380936C0321
:1031E0002DB380916D03809582238DBB9FBF02C05C
:1031F00090936C0380E58CBD1DBC60E880E090E09E
:103200000E94B51865E58BE190E00E94B51865E570
:103210008AE190E00E94B51880916E03882361F0E6
:103220009FB7F89420916E0380916C03213019F4BC
:103230008DBB9FBF01C08FBF80E090E499838883DE
:1032400080E090E69987888780E098E49B838A8372
:1032500080E098E69B878A8780E090E59D838C8359
:1032600080E090E79D878C8780E098E59F838E8340
:1032700080E098E79F878E87DF91CF910895CF9266
:10328000DF92EF92FF920F931F93CF93DF93EC01A6
:103290007A018B016C01C40ED51ECC15DD05A1F0A1
:1032A0000E94B11880EF0E94AA188D2F0E94AA18C0
:1032B0008C2F0E94AA182196F80181918F010E94FB
:1032C000AA180E94B318E9CFC701DF91CF911F91CF
:1032D0000F91FF90EF90DF90CF9008951F93CF93C1
:1032E000DF931F92CDB7DEB7182F99830E94B118D4
:1032F0008FE00E94AA189981892F0E94AA18812F15
:103300000E94AA1880E00E94AA1889830E94B3181C
:1033100089810F90DF91CF911F9108951F93CF93D3
:10332000DF93182F60E270E00E941415C82FD0E0E0
:1033300061E270E0812F0E941415DC2FCC279E01E2
:10334000282BC901DF91CF911F910895FF920F9310
:103350001F93CF93DF93F62EC0E0D0E08F2D0E9415
:103360008E198C01009721F08F2D0E948E19EC018F
:10337000C017D10799F7CE01DF91CF911F910F911F
:10338000FF9008951F93CF93DF93182F66E270E0AC
:103390000E941415C82FD0E067E270E0812F0E94D0
:1033A0001415DC2FCC279E01282BC901DF91CF916A
:1033B0001F910895FF920F931F93CF93DF93F62EE3
:1033C000C0E0D0E08F2D0E94C2198C01009721F03F
:1033D0008F2D0E94C219EC01C017D10799F7CE01B9
:1033E000DF91CF911F910F91FF9008956F927F927F
:1033F0009F92AF92BF92CF92DF92EF92FF920F9384
:103400001F93CF93DF931F92CDB7DEB7D82E962EA2
:103410003A01590164E270E0892D99830E941415E4
:10342000E82EF12C65E270E0892D0E941415FE2C27
:10343000EE24E82AE60CF71C970137706D2C998171
:10344000792E690C711C690C711CD301ED91FC91F2
:10345000E20FF31FC901800F911F81309840A0F047
:10346000C12C48E0D42EC21AD30AA601B501CF015F
:103470000E943F19A8014C195D09B5016C0D7D1D15
:10348000F3018081918103C0A801B501CF010E94A1
:103490003F19E00EF11E4F2D64E270E0892D0E946D
:1034A00022154E2D65E270E0892D0F90DF91CF91AE
:1034B0001F910F91FF90EF90DF90CF90BF90AF9052
:1034C0009F907F906F900C9422150F931F9389010A
:1034D0009A0140E050E00E94F6191F910F91089563
:1034E000CF92DF92EF92FF920F931F93CF93DF93D0
:1034F000EC017A018B016C01C40ED51ECC15DD05E3
:10350000A9F00E94B1188FE00E94AA188D2F0E9486
:10351000AA188C2F0E94AA18219680E00E94AA184F
:10352000F80181938F010E94B318E8CFC701DF91A2
:10353000CF911F910F91FF90EF90DF90CF90089562
:10354000AF92BF92CF92DF92EF92FF920F931F93B1
:10355000CF93DF9300D0CDB7DEB75A8349835901AB
:10356000E981FA81F7707C01E60EF11CE60EF11C90
:10357000D70118968D919C9119978E0F9F1F9801D6
:103580002E0F3F1F2130384098F0C12C68E0D62E16
:10359000CE1ADF0AA601B5010E94701AA8014C19C3
:1035A0005D09B5016C0D7D1DF7018085918502C017
:1035B000A801B5010F900F90DF91CF911F910F914E
:1035C000FF90EF90DF90CF90BF90AF900C94701A67
:1035D0008F929F92AF92BF92CF92DF92EF92FF9223
:1035E0000F931F93CF93DF936C01962E5A017901AD
:1035F000802E68E270E0892D0E941415C82FD0E05B
:1036000069E270E0892D0E941415DC2FCC27C82BAD
:1036100087019501AE01692DC6010E94A01A811093
:103620001AC0CE0DDF1D4D2F68E270E0892D0E947B
:1036300022154C2F69E270E0892DDF91CF911F9107
:103640000F91FF90EF90DF90CF90BF90AF909F9041
:103650008F900C942215DF91CF911F910F91FF90C5
:10366000EF90DF90CF90BF90AF909F908F90089594
:10367000CF93C62F61E070E08C2F0E94221561E08D
:1036800070E08C2F0E9414158111F9CFCF9108950D
:10369000EF92FF920F931F93CF93DF93EC018E81F4
:1036A000833029F0843039F0E12CF12C07C09CE004
:1036B000E92EF12C03C08AE0E82EF12C4F815885C9
:1036C00069857A858B859C850E94671F8C010E5FBA
:1036D0001F4F0E0D1F1D88898823B1F04F89588D0B
:1036E000698D7A8D8B8D9C8D0E94671F7C014D8D1D
:1036F0005E8D6F8D78A189A19AA10E94671F8E0DA2
:103700009F1D0496080F191F8DA19EA1892B21F4DE
:1037100089A59AA5892B59F04DA15EA16FA178A525
:1037200089A59AA50E94671F0296080F191F8BA5ED
:103730009CA5892B21F48FA598A9892B59F04BA51D
:103740005CA56DA57EA58FA598A90E94671F02960E
:10375000080F191FC801DF91CF911F910F91FF90A2
:10376000EF900895AF92BF92CF92DF92EF92FF92C7
:103770000F931F93CF93DF9300D0CDB7DEB77C01BB
:103780005B018A019A838983CA010E94481B6C01EC
:103790000E94591EA816B9060CF4A7C060E1CE011C
:1037A00001960E94871EA980BA80B601C5010E94B9
:1037B000EB1D8A0D9B1D9A838983F80186818430D5
:1037C00041F46BEB71E0CE0101960E94B11E64E002
:1037D00007C060EC71E0CE0101960E94B11E63E06B
:1037E000CE0101960E94871ED12CF801878580FBAF
:1037F000D1F881E09089911101C080E080FBD2F87E
:10380000D2FE0EC0F80184A18370880F880F880F44
:10381000FD2DF77EDF2ED82AF80183A180FBD5F895
:10382000F80185A196A1892B21F481A592A5892B68
:1038300011F06894D7F8F80183A594A5892B21F499
:1038400087A590A9892B11F06894D6F86D2DCE012B
:1038500001960E94871EF80165857685CE01019646
:103860000E94911EF801278130854185528563852C
:103870007485CE0101960E94D81EF80180898823A4
:10388000A9F02789308D418D528D638D748DCE01C5
:1038900001960E94D81EF801258D368D478D50A1C6
:1038A00061A172A1CE0101960E94D81ED7FE0BC065
:1038B000F80125A136A147A150A561A572A5CE01A9
:1038C00001960E94D81ED6FE0BC0F80123A534A590
:1038D00045A556A567A570A9CE0101960E94D81EE0
:1038E00089819A818E199F0902C08EEF9FEF0F90F8
:1038F0000F90DF91CF911F910F91FF90EF90DF908C
:10390000CF90BF90AF900895CF92DF92EF92FF9249
:103910000F931F93CF93DF9300D000D0CDB7DEB7C6
:103920006C017B015C834B83CE0103960E947F1E5A
:10393000807F803219F50B811C81BE016F5F7F4F44
:10394000C8010E94681E080F191F1C830B83298160
:103950003A8122303105A4F0CE0103960E947F1EE9
:1039600087FB882780F9F6018083CE0103960E94A9
:103970007F1EF701808381E090E002C080E090E04C
:103980000F900F900F900F90DF91CF911F910F919B
:10399000FF90EF90DF90CF900895EF92FF920F93FA
:1039A0001F93CF93DF9300D0CDB7DEB78C019A83FE
:1039B0008983623071059CF0642F6295607FCE012F
:1039C00001960E94871EE980FA8060E070E0C701DE
:1039D0000E94EB1D8E0D9F1D801B910B02C08EEF70
:1039E0009FEF0F900F90DF91CF911F910F91FF905C
:1039F000EF9008954CE00C94CD1C2F923F924F9283
:103A00005F926F927F928F929F92AF92BF92CF926E
:103A1000DF92EF92FF920F931F93CF93DF9300D02B
:103A200000D0CDB7DEB73C014B011A012901BC82A1
:103A3000AB821A821982CE0103960E947F1E982FB4
:103A4000907F903309F04CC083FB992790F9F301E4
:103A50009083282F2695237030E0F4013183208352
:103A60008170F10180836B807C80BE016F5F7F4F2E
:103A7000C3010E94681E5C01C3018A0D9B1D9C83CB
:103A80008B8369807A80680E791EA301BE016D5F09
:103A90007F4FC8010E94311F892B21F18B819C81AE
:103AA0009301281B390B37FD1DC0F40180819181E2
:103AB000181619063CF4CE0103960E94701EF201FE
:103AC000918380838B819C81681A790AF6017182C7
:103AD0006082F70191838083AA24A394B12C02C051
:103AE000A12CB12CC5010F900F900F900F90DF917A
:103AF000CF911F910F91FF90EF90DF90CF90BF90EB
:103B0000AF909F908F907F906F905F904F903F907D
:103B10002F900895CF92DF92EF92FF920F931F9311
:103B2000CF93DF9300D000D0CDB7DEB78C016B010F
:103B30007A013C832B83CE0103960E947F1E83FB78
:103B4000992790F9F601908382958F70F801808310
:103B50000B811C81BE016F5F7F4FC8010E94681EF0
:103B6000080F191F1C830B8329813A8122303105EC
:103B70004CF0CE0103960E94701EF7019183808362
:103B800081E090E00F900F900F900F90DF91CF9118
:103B90001F910F91FF90EF90DF90CF9008952091AB
:103BA0001C0430911D04F901AF01421B530B461751
:103BB000570724F44191DC014C93F6CFCB0177FFFA
:103BC00002C080E090E0280F391F30931D0420933D
:103BD0001C04CB0108950F931F93CF93DF939B0198
:103BE000EC01E0E0F0E000E810E0C901B8010E945B
:103BF000B527982F37FF02C021583F4F220F232FA0
:103C0000221F330B1216130614F4982F9068319666
:103C10009993121613064CF3CF01DF91CF911F91A8
:103C20000F910895AF92BF92CF92DF92EF92FF92E1
:103C30000F931F93CF93DF931F92CDB7DEB75C0135
:103C40007B01FB011182108200E010E0CC24C394C0
:103C5000D12C0F5F1F4F05301105F1F061E070E0CE
:103C6000CE010196F50109950197B1F44981242F00
:103C70002F772C9DC0012D9D900D1124F7012081DF
:103C80003181280F391F31832083D694DC2CCC243A
:103C9000D794C79447FDDDCFC8010F90DF91CF9136
:103CA0001F910F91FF90EF90DF90CF90BF90AF905A
:103CB00008959C012F5F3F4F2038310514F4029680
:103CC00008952115304414F4039608950496089538
:103CD00090931D0480931C048FEC9DE10C94121EA4
:103CE000DC01ED91FC911197808190E0982F88275D
:103CF00021813296ED93FC93820F911D0895DC0192
:103D0000ED91FC9111978191ED93FC930895FC0145
:103D1000A081B1816C938081918101969183808390
:103D20000895CF93DF93FC01CB01A081B1819B016A
:103D300077FF02C021503F4F3C93C081D1819E014B
:103D40002F5F3F4F3183208360E071E00E94B527F1
:103D5000898380819181019691838083DF91CF91C6
:103D60000895EF92FF920F931F93CF93DF938C01EF
:103D70007B01EB0109900020E9F72197C61BD70BC7
:103D8000BE010E94911EAE01B701F80180819181B0
:103D90000E94A72AF801808191818C0F9D1F918339
:103DA0008083DF91CF911F910F91FF90EF90089545
:103DB000EF92FF920F931F93CF93DF9300D000D029
:103DC00000D0CDB7DEB78C0129833A834B835C8367
:103DD0006D837E8369817A81EB80FC801E141F04D1
:103DE000FCF4B7010E94911E6D817E81A701F8014C
:103DF000808191810E94A72AF801808191818E0D96
:103E00009F1D9183808326960FB6F894DEBF0FBE68
:103E1000CDBFDF91CF911F910F91FF90EF9008954B
:103E20006115710571F026960FB6F894DEBF0FBECE
:103E3000CDBFDF91CF911F910F91FF90EF900C9428
:103E4000B11E60E070E026960FB6F894DEBF0FBE9C
:103E5000CDBFDF91CF911F910F91FF90EF900C9408
:103E6000911EEF92FF920F931F93CF93DF938C01DC
:103E7000EB017A01888199819A01281B390B223044
:103E800031051CF480E090E018C0CB010E94701E48
:103E9000F8019383828328813981A901480F591F32
:103EA000E416F50678F33583248328813981280FB9
:103EB000391F3983288381E090E0F8011182108254
:103EC000DF91CF911F910F91FF90EF900895CF93C5
:103ED000DF9300D000D000D0CDB7DEB749835A833E
:103EE0006B837C838D839E83E981FA81309749F0CF
:103EF000DF010D900020E9F7CD0101978E1B9F0B8C
:103F000002C08B819C8126960FB6F894DEBF0FBE4F
:103F1000CDBFDF91CF910895DC018D919C911197D8
:103F2000009751F0FC0101900020E9F7AF014150EA
:103F30005109481B590B08C014968D919C911597F7
:103F400012964D915C911397DB010D900020E9F7DB
:103F50001197A61BB70B4A175B0751F40E94B72AAB
:103F600031E020E0892B09F030E0832F922F089573
:103F700080E090E00895EF92FF920F931F93CF930C
:103F8000DF9300D000D000D0CDB7DEB77C01F42F96
:103F9000E52FCB01A9016F2F7E2F0E94671F02968C
:103FA000800F911F1E141F040CF4029626960FB664
:103FB000F894DEBF0FBECDBFDF91CF911F910F915F
:103FC000FF90EF9008952F923F924F925F926F92E1
:103FD0007F928F929F92AF92BF92CF92DF92EF9299
:103FE000FF920F931F93CF93DF93CDB7DEB72A973E
:103FF0000FB6F894DEBF0FBECDBF2C011B01498761
:1040000039010A87282D8B82392D9C824A2DAD8259
:104010005B2DBE826C2DCF827D2DD886C9A0DAA003
:104020009A8389838601C3010E94BB1F8C010E9471
:10403000591E28163906D4F160E3898580FB63F99F
:10404000862D8370880F697F682B8A8580FB60F9D5
:10405000CE0101960E94871E29803A80B801C101D5
:104060000E94EB1D820D931D9A8389832B813C81D5
:104070004D815E816F817885CE0101960E94D81EA8
:10408000161417042CF4B701CE0101960E94911E5C
:10409000A6016F8D78A189819A810E94A72A8981C2
:1040A0009A818C0D9D1D8419950902C08EEF9FEF9A
:1040B0002A960FB6F894DEBF0FBECDBFDF91CF9129
:1040C0001F910F91FF90EF90DF90CF90BF90AF9036
:1040D0009F908F907F906F905F904F903F902F9028
:1040E0000895CF92DF92EF92FF920F931F93CF9399
:1040F000DF9300D0CDB7DEB77C019A83898364302B
:1041000071052CF1642F6295607F20FB63F981E0DB
:10411000463009F080E0880F697F682BCE01019658
:104120000E94871EC980DA8062E070E0C6010E94AA
:10413000EB1D8C0D9D1D9A838983B801CE010196DC
:104140000E94911E89819A818E199F0902C08EEF6B
:104150009FEF0F900F90DF91CF911F910F91FF90E4
:10416000EF90DF90CF90089508951F920F920FB6B1
:104170000F9211242F933F938F939F93AF93BF93ED
:1041800080911F0490912004A0912104B0912204F9
:1041900030911E0423E0230F2D3720F40196A11D3A
:1041A000B11D05C026E8230F0296A11DB11D209365
:1041B0001E0480931F0490932004A0932104B093C5
:1041C00022048091230490912404A0912504B091AD
:1041D00026040196A11DB11D80932304909324040D
:1041E000A0932504B0932604BF91AF919F918F9126
:1041F0003F912F910F900FBE0F901F9018952FB7E2
:10420000F89460911F047091200480912104909192
:1042100022042FBF08953FB7F89480912304909112
:104220002404A0912504B091260426B5A89B05C0BE
:104230002F3F19F00196A11DB11D3FBF6627782FB2
:10424000892F9A2F620F711D811D911D42E0660F0B
:10425000771F881F991F4A95D1F708958F929F92D3
:10426000AF92BF92CF92DF92EF92FF926B017C01EF
:104270000E940B214B015C01C114D104E104F10443
:10428000F1F00E94B4200E940B21681979098A0973
:104290009B09683E73408105910570F321E0C21AC5
:1042A000D108E108F10888EE880E83E0981EA11C71
:1042B000B11CC114D104E104F10429F7DDCFFF9052
:1042C000EF90DF90CF90BF90AF909F908F90089528
:1042D000789484B5826084BD84B5816084BD85B5E1
:1042E000826085BD85B5816085BDEEE6F0E08081A8
:1042F00081608083E1E8F0E01082808182608083C9
:10430000808181608083E0E8F0E08081816080834B
:10431000E1EBF0E0808184608083E0EBF0E080817D
:1043200081608083EAE7F0E080818460808380811F
:1043300082608083808181608083808180688083C7
:104340001092C1000895833081F028F4813099F0F3
:104350008230A1F008958730A9F08830B9F0843018
:10436000D1F4809180008F7D03C0809180008F7791
:1043700080938000089584B58F7702C084B58F7DC7
:1043800084BD08958091B0008F7703C08091B00004
:104390008F7D8093B0000895CF93DF9390E0FC0170
:1043A000E458FF4F2491FC01E057FF4F849188238C
:1043B00049F190E0880F991FFC01E255FF4FA5914C
:1043C000B4918C559F4FFC01C591D4919FB7611159
:1043D00008C0F8948C91209582238C938881822345
:1043E0000AC0623051F4F8948C91322F30958323B7
:1043F0008C938881822B888304C0F8948C91822BC3
:104400008C939FBFDF91CF9108950F931F93CF930C
:10441000DF931F92CDB7DEB7282F30E0F901E859BE
:10442000FF4F8491F901E458FF4F1491F901E057CF
:10443000FF4F04910023C9F0882321F069830E9473
:10444000A3216981E02FF0E0EE0FFF1FEC55FF4F35
:10445000A591B4919FB7F8948C91611103C0109508
:10446000812301C0812B8C939FBF0F90DF91CF914F
:104470001F910F910895FC01818D228D90E0805C49
:104480009F4F821B91098F7399270895FC01918D8D
:10449000828D981731F0828DE80FF11D858D90E0A7
:1044A00008958FEF9FEF0895FC01918D828D9817ED
:1044B00061F0828DDF01A80FB11D5D968C91928D08
:1044C0009F5F9F73928F90E008958FEF9FEF089505
:1044D00088ED93E2892B49F080E090E0892B29F068
:1044E0000E94D82381110C9400000895FC01848D52
:1044F000DF01A80FB11DA35ABF4F2C91848D90E00E
:1045000001968F739927848FA689B7892C93A089E8
:10451000B1898C9180648C93938D848D981306C09F
:104520000288F389E02D80818F7D80830895CF9369
:10453000DF93EC01888D8823C9F0EA89FB898081AB
:1045400085FD05C0A889B9898C9186FD0FC00FB67D
:1045500007FCF5CF808185FFF2CFA889B9898C91BE
:1045600085FFEDCFCE010E947622E7CFDF91CF917C
:104570000895CF92DF92FF920F931F93CF93DF9313
:104580001F92CDB7DEB76C0181E0D60158968C93AF
:1045900058975B969C915B975C968C915C9798136F
:1045A00007C05096ED91FC915197808185FD2EC0FA
:1045B000F601038D10E00F5F1F4F0F731127F02ED0
:1045C000F601848DF81211C00FB607FCF9CFD601A1
:1045D0005096ED91FC915197808185FFF1CFC601F6
:1045E00069830E9476226981EBCF838DE80FF11DEC
:1045F000E35AFF4F6083D6015B960C935B9752960C
:10460000ED91FC915397808180620CC0D601569643
:10461000ED91FC91579760835096ED91FC915197E5
:1046200080818064808381E090E00F90DF91CF9162
:104630001F910F91FF90DF90CF900895BF92CF927E
:10464000DF92EF92FF92CF93DF93EC016A017B013F
:10465000B22EE889F98982E08083411581EE5807FE
:1046600061057105A1F060E079E08DE390E0A701BC
:1046700096010E94C92721503109410951095695D7
:10468000479537952795211580E1380798F0E889F7
:10469000F989108260E874E88EE190E0A701960144
:1046A0000E94C92721503109410951095695479562
:1046B00037952795EC85FD853083EE85FF85208332
:1046C000188EEC89FD89B082EA89FB89808180613E
:1046D0008083EA89FB89808188608083EA89FB89FD
:1046E000808180688083EA89FB8980818F7D8083D7
:1046F000DF91CF91FF90EF90DF90CF90BF90089522
:104700001F920F920FB60F9211242F938F939F93A6
:10471000EF93FF93E0913704F09138048081E091AA
:104720003D04F0913E0482FD12C0908180914004CE
:104730008F5F8F7320914104821751F0E091400404
:10474000F0E0E95DFB4F958F8093400401C08081CC
:10475000FF91EF919F918F912F910F900FBE0F902E
:104760001F9018951F920F920FB60F9211242F933E
:104770003F934F935F936F937F938F939F93AF93E9
:10478000BF93EF93FF9387E294E00E947622FF911C
:10479000EF91BF91AF919F918F917F916F915F91B9
:1047A0004F913F912F910F900FBE0F901F90189532
:1047B00087E294E00E943B2221E0892B09F420E06B
:1047C000822F089510922A041092290488EE93E013
:1047D000A0E0B0E080932B0490932C04A0932D04D0
:1047E000B0932E048BEC91E09093280480932704DF
:1047F00085EC90E0909334048093330484EC90E053
:10480000909336048093350480EC90E090933804C4
:104810008093370481EC90E090933A0480933904BC
:1048200082EC90E090933C0480933B0486EC90E013
:1048300090933E0480933D041092400410924104F2
:1048400010924204109243040895AF92BF92CF9207
:10485000DF92EF92FF920F931F93CF93DF936C0140
:104860007B01C0E0D0E000E010E0F601EC0FFD1F9E
:104870004AE050E06281C7010E944A255C016EE275
:10488000C7010E94E7248A0D9B1D080F191F21965E
:10489000C330D10551F74AE050E0F6016581C70108
:1048A0000E944A25800F911FDF91CF911F910F9198
:1048B000FF90EF90DF90CF90BF90AF9008952BEDD9
:1048C00031E0FC013183208312821382148215822D
:1048D00008950F93FC018BED91E0918380836283B7
:1048E0004383248305830F9108952BED31E0FC0170
:1048F00031832083428353836483758308952BED32
:1049000031E0FC0131832083FB01408151816281D0
:104910007381FC0142835383648375830895FB0193
:104920004081518162817381FC014283538364839E
:10493000758308958BED91E09093C5048093C40432
:104940001092C6041092C7041092C8041092C904B1
:104950000895CF92DF92EF92FF920F931F93CF9320
:10496000DF937C016A01EB0100E010E00C151D05EE
:1049700071F06991D701ED91FC910190F081E02DEA
:10498000C7010995892B19F00F5F1F4FEFCFC801A1
:10499000DF91CF911F910F91FF90EF90DF90CF901B
:1049A00008956115710581F0DB010D900020E9F794
:1049B000AD0141505109461B570BDC01ED91FC91B3
:1049C0000280F381E02D099480E090E00895DC01FD
:1049D000ED91FC910190F081E02D09948F929F92CE
:1049E000AF92BF92DF92EF92FF920F931F93CF93FC
:1049F000DF93CDB7DEB7A1970FB6F894DEBF0FBE39
:104A0000CDBF7C01F42FD52ECB0119A2223008F4A2
:104A10002AE08E010F5D1F4F822E912CA12CB12C0C
:104A20006F2F7D2DA50194010E94C927F22FD32E4F
:104A3000CA01015011096A3014F4E0E301C0E7E350
:104A4000E60FD801EC93232B242B252B49F7B80133
:104A5000C7010E94D124A1960FB6F894DEBF0FBE05
:104A6000CDBFDF91CF911F910F91FF90EF90DF901D
:104A7000BF90AF909F908F9008952115310541F41C
:104A8000DC01ED91FC910190F081E02D642F0994FF
:104A90000C94EE249A01462F50E060E070E00C94F4
:104AA0003D250F931F93CF93DF93EC010E94FF20CE
:104AB000688779878A879B87E881F9810680F781F3
:104AC000E02DCE01099597FF15C00E94FF200885B3
:104AD00019852A853B85601B710B820B930B0C811A
:104AE0001D812E813F81601771078207930720F394
:104AF0008FEF9FEFDF91CF911F910F910895FC01F0
:104B000044835583668377830895CF92DF92EF9233
:104B1000FF920F931F93CF93DF937C016A01EB0108
:104B200000E010E00C151D0549F0C7010E94512559
:104B300097FD04C089930F5F1F4FF4CFC801DF9129
:104B4000CF911F910F91FF90EF90DF90CF9008953C
:104B50000F931F93CF93DF93EC018B016FEB71E009
:104B60000E947526C8010E94512597FD05C0682F37
:104B7000CE010E941127F6CFCE01DF91CF911F9178
:104B80000F910895CF93DF9300D000D0CDB7DEB75B
:104B90009B01AC01611571058105910569F069837F
:104BA0003A834B835C830E94C22929813A814B81DD
:104BB0005C810E94EB2703C060E070E0CB010F90A6
:104BC0000F900F900F90DF91CF910895CF92DF92C9
:104BD000EF92FF926B017C016217730784079507C0
:104BE00064F4CA01B9016C197D098E099F090E94FC
:104BF000C2256C0D7D1D8E1D9F1DFF90EF90DF90D7
:104C0000CF90089570E09B01382BC9010895FC01F5
:104C1000808191810C94E428CF93DF93EC0188810B
:104C20009981009711F00E94E428198218821D8250
:104C30001C821B821A82DF91CF9108950F931F93DC
:104C4000CF93DF93EC018B016F5F7F4F8881998158
:104C50000E94D029009731F0998388831B830A83AF
:104C600081E001C080E0DF91CF911F910F91089505
:104C7000CF93DF93EC0188819981892B29F08A8178
:104C80009B818617970760F4CE010E941E26882319
:104C900041F08C819D81892B19F4E881F981108282
:104CA00081E0DF91CF910895EF92FF920F931F93D0
:104CB000CF93DF93EC017B018A01BA010E94382671
:104CC000811104C0CE010E940C2607C01D830C83F5
:104CD000B701888199810E94B02ACE01DF91CF91DE
:104CE0001F910F91FF90EF900895FC0111821082A7
:104CF00013821282158214826115710559F0FB012D
:104D000001900020E9F7AF0141505109461B570BB4
:104D10000C94542608950F931F93CF93DF938C0127
:104D2000EB01FC0180819181009799F042815381D0
:104D30002C813D814217530750F0688179810E9490
:104D4000B02A8C819D81F8019583848313C00E94D1
:104D5000E42888819981F801918380838A819B81ED
:104D6000938382838C819D819583848319821882A9
:104D70001B821A821D821C82DF91CF911F910F919D
:104D80000895CF93DF93EC018617970711F00E94E7
:104D90008B26CE01DF91CF910895CF93DF93EC0165
:104DA0006115710561F0FB0101900020E9F7AF0189
:104DB00041505109461B570B0E94542602C00E94C5
:104DC0000C26CE01DF91CF910895EF92FF920F93C1
:104DD0001F93CF93DF93EC017B010C811D81611543
:104DE000710511F480E016C04115510591F0040FD2
:104DF000151FB8010E9438268823A1F32881398124
:104E00008C819D81B701820F931F0E94B02A1D8360
:104E10000C8381E0DF91CF911F910F91FF90EF9074
:104E20000895CF93DF9300D0CDB7DEB769831A82A0
:104E300041E050E0BE016F5F7F4F0E94E5260F907A
:104E40000F90DF91CF910895FC01848195816817BF
:104E5000790720F480819181009729F41092CA0487
:104E60008AEC94E00895860F971F08950F931F937F
:104E7000CF93DF93EB0141155105E9F02097D9F06D
:104E8000FC016481758126173707A0F4621B730B40
:104E90008A01015011096017710708F48B01FC01A8
:104EA00060817181620F731FA801CE010E94C52A23
:104EB000C00FD11F1882DF91CF911F910F910895DC
:104EC000BF92CF92DF92EF92FF920F931F93CF93F7
:104ED000DF936C017B01EA0189012417350720F477
:104EE0008D2FE901042F182F6FEB71E0C6010E948E
:104EF0007526D70114968D919C911597C817D907DF
:104F0000C8F48017910708F48C01D701ED91FC914A
:104F10001197E00FF11FB08010826D917C916C0FA2
:104F20007D1FC6010E94CD26D701ED91FC91E00FB7
:104F3000F11FB082C601DF91CF911F910F91FF90B9
:104F4000EF90DF90CF90BF90089508950E94682160
:104F50000E94A5270E94CC05C8E6D2E20E94B706AF
:104F60002097E1F30E946822F9CF97FB072E16F4F1
:104F7000009407D077FD09D00E94292807FC05D0AE
:104F80003EF4909581959F4F0895709561957F4F60
:104F90000895A1E21A2EAA1BBB1BFD010DC0AA1F7A
:104FA000BB1FEE1FFF1FA217B307E407F50720F092
:104FB000A21BB30BE40BF50B661F771F881F991F0D
:104FC0001A9469F760957095809590959B01AC0156
:104FD000BD01CF010895052E97FB1EF400940E9499
:104FE000022857FD07D00E94C92707FC03D04EF4C2
:104FF0000C94022850954095309521953F4F4F4F86
:105000005F4F089590958095709561957F4F8F4F74
:105010009F4F0895EE0FFF1F0590F491E02D099426
:1050200069279627692778278727782708950E9478
:105030003D28B7FF0895821B930B08950E943D28D9
:10504000A59F900DB49F900DA49F800D911D1124DC
:105050000895AA1BBB1B51E107C0AA1FBB1FA617BF
:10506000B70710F0A61BB70B881F991F5A95A9F711
:1050700080959095BC01CD010895A29FB001B39F8A
:10508000C001A39F700D811D1124911DB29F700D51
:10509000811D1124911D0895CF93DF9382309105D6
:1050A00010F482E090E0E091CD04F091CE0420E095
:1050B00030E0A0E0B0E0309739F1408151814817ED
:1050C0005907B8F04817590771F4828193811097F6
:1050D00029F013969C938E9312972CC09093CE0434
:1050E0008093CD0427C02115310531F042175307B5
:1050F00018F0A901DB0101C0EF019A01BD01DF0138
:105100000280F381E02DD7CF21153105F9F0281B5E
:10511000390B2430310580F48A819B81611571053A
:1051200021F0FB019383828304C09093CE0480938B
:10513000CD04FE01329644C0FE01E20FF31F8193BD
:10514000919322503109398328833AC02091CB04AE
:105150003091CC04232B41F42091020130910301C2
:105160003093CC042093CB042091000130910101B5
:105170002115310541F42DB73EB7409104015091FE
:105180000501241B350BE091CB04F091CC04E21710
:10519000F307A0F42E1B3F0B2817390778F0AC015A
:1051A0004E5F5F4F2417350748F04E0F5F1F509337
:1051B000CC044093CB048193919302C0E0E0F0E0F3
:1051C000CF01DF91CF910895CF93DF93009709F43A
:1051D00087C0FC01329713821282C091CD04D09116
:1051E000CE04209781F420813181280F391F8091CE
:1051F000CB049091CC048217930779F5F093CC04FB
:10520000E093CB046DC0DE0120E030E0AE17BF07B5
:1052100050F412964D915C9113979D0141155105E3
:1052200009F1DA01F3CFB383A28340815181840F66
:10523000951F8A179B0771F48D919C911197840F8C
:10524000951F02969183808312968D919C9113975E
:10525000938382832115310529F4F093CE04E093E2
:10526000CD043EC0D9011396FC93EE9312974D9155
:105270005D91A40FB51FEA17FB0779F48081918136
:10528000840F951F0296D90111969C938E9382816B
:10529000938113969C938E931297E0E0F0E08A81BD
:1052A0009B81009719F0FE01EC01F9CFCE01029627
:1052B00028813981820F931F2091CB043091CC0437
:1052C0002817390769F4309729F41092CE04109208
:1052D000CD0402C013821282D093CC04C093CB04BD
:1052E000DF91CF9108958F929F92AF92BF92CF920C
:1052F000DF92EF92FF92CF93DF93EC016881798187
:105300008A819B81611571058105910521F464E213
:1053100079ED8BE597E02DE133EF41E050E00E941D
:10532000EB2749015A019B01AC01A7EAB1E40E94B5
:105330001E286B017C01ACEEB4EFA50194010E9424
:10534000D72AC60ED71EE81EF91EF7FE06C081E05A
:10535000C81AD108E10880E8F80AC882D982EA822E
:10536000FB82C701B6019F77DF91CF91FF90EF904D
:10537000DF90CF90BF90AF909F908F9008950E9444
:105380007329089586E091E00E947329089560933F
:105390000601709307018093080190930901089515
:1053A000A0E0B0E0E6EDF9E20C94E02AEC01CB01DC
:1053B000209719F40E944C28B8C0FE01E60FF71F91
:1053C0009E0122503109E217F30708F4ACC0D9015D
:1053D0000D911C91119706171707B8F005301105AC
:1053E00008F49FC0A801445051094617570708F414
:1053F00098C002501109061B170B019311936D936E
:105400007C93CF010E94E4288CC05B01A01AB10AF2
:105410004E01800E911EA091CD04B091CE04612C5E
:10542000712C60E070E0109709F449C0A815B90527
:10543000C9F5ED90FC901197670142E0C40ED11CB4
:10544000CA14DB0478F147018A189B08640142E022
:10545000C40ED11C1296BC9012971396AC91B5E075
:10546000CB16D10440F0B282A38391828082D9010D
:105470008D939C9309C00E5F1F4F0E0D1F1DF901E8
:1054800011830083EB2DFA2F6115710531F0DB01DB
:105490001396FC93EE93129744C0F093CE04E093DE
:1054A000CD043FC06D917C9111976616770608F484
:1054B0003B01BD0112960D90BC91A02DB4CF60911F
:1054C000CB047091CC0468157905E9F46816790667
:1054D000D0F440910001509101014115510541F472
:1054E0004DB75EB76091040170910501461B570BE3
:1054F000E417F507C0F4F093CC04E093CB04F90172
:10550000918380830EC00E944C287C01009759F043
:10551000A801BE010E94A72ACE010E94E428C7016B
:1055200004C0CE0102C080E090E0CDB7DEB7EEE06F
:105530000C94FC2AFB01DC0104C08D9101908019C0
:1055400021F441505040C8F7881B990B0895FB0186
:10555000DC0102C001900D9241505040D8F70895EF
:10556000FB01DC0101900D920020E1F70895FB01A1
:10557000DC014150504030F08D910190801919F4B8
:105580000020B9F7881B990B0895FB01DC014150FD
:10559000504048F001900D920020C9F701C01D92C3
:1055A00041505040E0F70895B7FF0C941E280E9428
:1055B0001E28821B930B08952F923F924F925F9269
:1055C0006F927F928F929F92AF92BF92CF92DF9213
:1055D000EF92FF920F931F93CF93DF93CDB7DEB778
:1055E000CA1BDB0B0FB6F894DEBF0FBECDBF09940C
:1055F0002A88398848885F846E847D848C849B8463
:10560000AA84B984C884DF80EE80FD800C811B8170
:10561000AA81B981CE0FD11D0FB6F894DEBF0FBE9F
:10562000CDBFED01089510E0CAECD0E004C0FE014A
:105630000E940C282296CC3CD107C9F7F894FFCFE2
:105640000000CF048000010000004D5154430000D1
:10565000040000000000003C0001004D51545700C0
:10566000000000000000000000000000000000003A
:1056700000000000000000000000005A01DEADBE86
:10568000EFFEED00C001005E00000061726475690C
:105690006E6F2D636C69656E740041726475696E1E
:1056A0006F4E6F6465000102030457495A6E6574BA
:1056B00000000000009F10C810E210EB1009112C30
:1056C00011A8113011051105123F12B51090109359
:1056D00010BD109510000000009812D0129412E432
:1056E000122A13AE124313AF12C4127014CC1270EC
:1056F000130D13791280129012C6134D5154540099
:105700004D51497364700000000000B922A9243B88
:0E571000225422462297220000000025240089
:00000001FF
